:1070000011E0A0E0B1E0E2EBFEE702C005900D92D6
:10701000A434B107D9F712E0A4E4B1E001C01D9295
:10702000AE34B107E1F7112482E090E020E80FB61A
:10703000F89420936100809361000FBE14BE29E292
:1070400088E190E00FB6F894A895809360000FBE99
:10705000209360008AB1806C8AB980EC68EC70E0A3
:1070600056D3A8951092840184B18D6284B9249876
:107070002A9A85B1867D85B982E390E036D380E097
:1070800087D380E06FE072D381E060E06FD385E06A
:107090006AE06CD31D821C8285E58B838FEF8A8327
:1070A00089838BE08E010F5F1F4FB80145E091D3BC
:1070B0001A8219828AE0B80145E08BD380E1B801D9
:1070C00045E087D38DE15ED3882319F480E563E73B
:1070D0004DD38CE16FE34AD38DE167E047D381E084
:1070E00057D300E011E0FF2466E0C62ED12CCC0E71
:1070F000DD1E08C004E211E056E0C52ED12CCC0EF6
:10710000DD1E39C0F80181919191A191B1918F015A
:107110008E83292F3A2F4B2F55272F839D014427EC
:10712000552728878B2F9927AA27BB2789878F2D3B
:10713000B60144E04ED3F394F9E0FF1619F7DACF25
:10714000DB01CA01022E04C0B695A79597958795D5
:107150000A94D2F78193285030408FEF283F3807A8
:1071600079F78F2DB60144E034D3F3940C5F1F4FB1
:107170009EE0F91649F0F8014081518162817381E6
:10718000F60128E130E0DCCF8EE068E371E04BE00F
:1071900020D38EE98F8386E888878BE089878FEFFD
:1071A0008E8384E0B60144E014D38E81897F8E8380
:1071B00084E0B60144E00DD380E0EAD282E390E0BF
:1071C00094D2F6D210920E02A89584E591E060EF79
:1071D00073E04CE050E020E63BE3FCD584E591E031
:1071E0006CE070E0CCD3892B09F449C080EC60E0FE
:1071F00070E08DD210920B0210920A0210920902D6
:10720000109208028FEF9FEF90930D0280930C0273
:1072100090930702809306021092110282E062E8C6
:107220002CD48823D9F380916D0190E0909355017F
:107230008093540180916E0190E090935701809368
:107240005601EFE6F1E0A8E5B1E081918D9321E0F0
:10725000E537F207D1F784E591E06AE070E08FD37B
:1072600090935F0180935E0180EF93E064E571E0AD
:107270004CE050E027E63BE3C9D5DED3CFCFA8955D
:1072800086E491E062EE73E04EE050E020E63BE3FE
:10729000A1D586E491E06EE070E071D3892B19F4FA
:1072A00000E010E051C0109247011092460180E0CA
:1072B00090E0AAD210920B0210920A0210920902D8
:1072C000109208028FEF9FEF90930D0280930C02B3
:1072D000909307028093060286E0809311028091CA
:1072E000580180931202809159018093130280917A
:1072F0005A018093140280915B0180931502809162
:107300005C018093160280915D018093170200E07A
:1073100010E014C084E065E8B0D3882379F0EDE68E
:10732000F1E0A8E5B1E090818C91981739F431969D
:10733000119681E0E337F807B1F786C180914601E5
:1073400090914701892B31F3A89580914601909146
:1073500047015AD2809146019091470190930B02C8
:1073600080930A0290930902809308028091480159
:107370009091490190930D0280930C028FEF9FEF43
:10738000909307028093060210921102FF240115C8
:107390001105B1F483E063E870D3882319F480E029
:1073A00090E004C08091630190916401F394EAE05D
:1073B000FE1611F08C01EBCF8C01009709F448D335
:1073C000A89510930702009306028AE080931102A9
:1073D0008091540190915501909313028093120271
:1073E0008091560190915701909315028093140259
:1073F00080914A0190914B0190931702809316025D
:1074000080914E0190914F01909319028093180240
:10741000809150019091510190931B0280931A0228
:1074200010E086E867E829D3882321F41F5F1A302B
:10743000C1F744C120914A0130914B0180916D0107
:1074400090916E012817390781F520914E013091F6
:107450004F0180917101909172012817390729F528
:10746000B6D2882311F120915001309151018091C1
:1074700073019091740128173907B1F010925101EE
:107480001092500186E491E06CE070E078D2909325
:1074900053018093520182EE93E066E471E04EE086
:1074A00050E027E63BE3B2D4D3D280E868EC70E04A
:1074B0002ED180916D0190916E0190934B0180933C
:1074C0004A0180916F019091700190934D018093DA
:1074D0004C01809171019091720190934F018093C2
:1074E0004E0186E491E06CE070E049D29093530144
:1074F0008093520189E080931102A2E1AA2EA2E0BA
:10750000BA2E80915401909155019093130280936B
:107510001202809156019091570190931502809329
:10752000140280914A0190914B019093170280932D
:10753000160280E180931802A895CC24DD24F0E99E
:10754000EF2EFFEFFF2EE3E07E2E8824839475E07C
:10755000972E01E161C0F501D086C78210E088E86E
:1075600069E88BD2882309F44CC080916D01909119
:107570006E01C816D90609F041C09E2D90599F771B
:10758000E92FF0E0EB57FE4FAFE6B1E080E10D9060
:1075900001928150E1F7903709F037C03FB7F89476
:1075A000F999FECFF70170925700E89507B600FCF5
:1075B000FDCFA701A5E8B1E02C9111968C91119710
:1075C00090E0982F8827820F911D1296FA010C01E6
:1075D00080925700E89511244E5F5F4FF2E0A5308E
:1075E000BF0751F7F70190925700E89507B600FCE6
:1075F000FDCF00935700E8953FBF07C0143609F44C
:107600001BD21F5F153609F0AACF0894C11CD11CEC
:1076100080E190E0E80EF91E80914C0190914D01BF
:10762000C816D90608F497CFA895D1D1882349F078
:1076300082EE93E066E471E04EE050E027E63BE343
:10764000E5D3FAD180E090E0818190E0982F8827FF
:107650002081820F911D9093470180934601809174
:1076600065019091660190934901809348011092C1
:107670004B0110924A0110924D0110924C01109250
:107680004F0110924E01109251011092500186E468
:1076900091E06CE070E073D19093530180935201BC
:1076A00082EE93E066E471E04EE050E027E63BE3D3
:1076B000ADD3009163011091640140CEC9D1BACE1F
:1076C000F999FECF92BD81BDF89A80B50895F999D8
:1076D000FECF1FBA92BD81BD60BD0FB6F894FA9A75
:1076E000F99A0FBE08950000089540E050E00BC0E5
:1076F00020E030E000002F5F3F4F61E0243F36077D
:10770000C9F74F5F5F4F4817590790F30895CF931C
:10771000DF93EB019BB19F73982B9BB961157105AA
:1077200039F0CB01E2DF8BB18F738BB9CE01DDDF96
:10773000DF91CF9108950F931F93182F00E0D3DFAF
:1077400017FD02C02B9801C02B9ACDDF2D9A83B173
:10775000110F82958170182BC6DF2D98C4DF0F5F43
:10776000083069F7812F1F910F9108951F93162FED
:10777000803208F480622A98DEDF812FDCDF2A9ACB
:107780001F9108952A98D7DF80E0D5DF2A9A0895BF
:107790001F93182F87E0F6DF87FF03C0112319F02E
:1077A00005C0112319F080E563E5E0DF1F9108951E
:1077B00082EE60E0DBDF87E0E5DF682F87E0D6DF81
:1077C000289880E0DFDF682F636080E0CFDF289AB1
:1077D0000895FF920F931F93CF93DF938B01F42EA5
:1077E00080320CF480622A98A6DFE80102C08991F9
:1077F000A2DF9E01201B2F15D0F32A9ADF91CF9193
:107800001F910F91FF9008950F931F93DF93CF93D4
:1078100000D000D00F92CDB7DEB78C011D821C8244
:1078200085E58B83812F99278A8309838AE0BE01AE
:107830006F5F7F4F45E0CDDF10934501009344011A
:107840000F900F900F900F900F90CF91DF911F919D
:107850000F910895EF92FF921F93DF93CF93CDB7CF
:10786000DEB7CF56D0400FB6F894DEBF0FBECDBF07
:10787000DE01A45BBF4FFE01E958FF4F84E2019097
:107880000D928150E1F7FE01E45BFF4FE180F28051
:107890001485838194812581368147815085618556
:1078A0007285A3858CA7892F99278DA72EA7232FB3
:1078B00033272FA748AB452F552749AB6AAB7BAB86
:1078C000ACABDF011D96AE014B5C5F4F212F30E06A
:1078D000235F3F4F2E0F3F1F04C08D91FA0181930C
:1078E000AF01A217B307C9F7FAA6E9A6175F1BA74E
:1078F000DE011696FE01B99683E201900D92815049
:10790000E1F71D821C8285E58B832E813F81832FC9
:1079100099278A83298380E1BE016F5F7F4F45E00D
:1079200058DF81EE60E022DF87E02CDF682F87E000
:107930001DDF289880E026DF682F6E7F626080E080
:1079400015DF289A80EBBE01675F7F4F488541DFD6
:1079500081E090E0CADE2CDFC159DF4F0FB6F8940A
:10796000DEBF0FBECDBFCF91DF911F91FF90EF9093
:10797000089587E107DF8095817008951895DC01EF
:107980004FEF5FEF20E030E01DC0FD01E20FF31F7D
:1079900080814827842F82958427082E8695869596
:1079A0008025082E869580258770042E452F869584
:1079B00007948795502D482706948795502548278A
:1079C0002F5F3F4F2617370700F3CA0108954091F4
:1079D0004C0150914D0184E0440F551F8A95E1F709
:1079E000E0E0F0E02FEF3FEF19C084912827822FCD
:1079F00082958227082E869586958025082E869565
:107A000080258770022E232F869507948795302D29
:107A1000282706948795302528273196E417F507FF
:107A200020F340E080914E0190914F0128173907D3
:107A300009F441E0842F089528E088E190E00FB632
:107A4000F894A895809360000FBE20936000FFCF4C
:107A5000BEDF882381F080E468EC70E058DEE0E06F
:107A6000F0E080E80FB6F89480936100E093610045
:107A70000FBE09950895E0DF08952F923F924F922F
:107A80005F926F927F928F929F92AF92BF92CF92AE
:107A9000DF92EF92FF920F931F93DF93CF93CDB7B7
:107AA000DEB7C75BD0400FB6F894DEBF0FBECDBFC8
:107AB000CB54DF4F6883C55BD04090918401909395
:107AC0000E029F5F9093840180930F0281E0809368
:107AD00010028091440190914501CD54DF4F99836C
:107AE0008883C35BD04022241FE8A12EB12CAC0EAA
:107AF000BD1EF5013D96CA54DF4FF983E883C65B8E
:107B0000D0408DB79EB784970FB6F8949EBF0FBE36
:107B10008DBFADB7BEB71196E5E0F2E084E201900B
:107B20000D928150E1F796DE66247724EDB7FEB71B
:107B3000B4960FB6F894FEBF0FBEEDBFA89588248B
:107B4000992417DF882309F414C113DF8823C1F1B6
:107B500087E018DE869590E087709070892B49F455
:107B6000CD54DF4F88819981C35BD0409A8389834C
:107B700004C0EFEFFFEFFA83E98380E603DED82E3F
:107B80002A9881E6D8DDB4E0EB2EF12CEC0EFD1E38
:107B90000D2D10E00D5F1F4F81E090E08C0F9D1FB9
:107BA000080F191F05C080E0C6DDF70181937F0132
:107BB000E016F106C1F7DB822A9A82EE60E0D6DD9C
:107BC000DE019496FE01319683E201900D92815080
:107BD000E1F78EA16CA17DA1893068F460E070E0CE
:107BE0004FEF5FEF20E030E080E090E0CC24FF2416
:107BF00000E010E036C058A5EFA0DAA459A44CA4C8
:107C00003BA4CDA4FEA40FA5FE01F096CA54DF4FFD
:107C1000A881B981C65BD040482F4950242F30E05D
:107C2000245F3F4F84E290E08C0F9D1F280F391F87
:107C300002C081918D93142FE217F307D1F7852F9E
:107C400090E0582F44274E0D511D8D2D90E0382F78
:107C50002227250D311D842D90E0982F8827830D34
:107C6000911DF50172836183548343833683258399
:107C700090878783C186F28603871487DE01A95B1C
:107C8000BF4F84E201900D928150E1F7DE01A559CA
:107C9000BF4FFE01E95BFF4F84E201900D928150DE
:107CA000E1F7A0E6B1E0FE01E559FF4F84E2019063
:107CB0000D928150E1F780916A0187FF4FC080915A
:107CC0006701909168019093300280932F02CD5408
:107CD000DF4F88819981C35BD04090932E028093BF
:107CE0002D028091650190916601909332028093FC
:107CF0003102809163019091640190932C028093F2
:107D00002B0280918401809333028F5F80938401E2
:107D100091E09093340290933502909336028091D3
:107D2000690180933702EDB7FEB7B4970FB6F894A8
:107D3000FEBF0FBEEDBFADB7BEB71196EAE2F2E0EF
:107D400084E201900D928150E1F784DD8DB79EB7FA
:107D500084960FB6F8949EBF0FBE8DBF80916A01C6
:107D6000CB54DF4F9881C55BD040891711F481E077
:107D700017C00894811C911CE8EE8E16E3E09E0665
:107D800009F0DFCE0894611C711CF4E16F167104D8
:107D900009F0D4CE23948AE0281609F0B2CE80E010
:107DA000C954DF4F0FB6F894DEBF0FBECDBFCF91E1
:107DB000DF911F910F91FF90EF90DF90CF90BF90D8
:107DC000AF909F908F907F906F905F904F903F907B
:107DD0002F900895A0E0B0E0E0EFFEE30C942C3F7C
:107DE0007C01EB018A01690109C0CE012196F601EF
:107DF0000995F70181937F0101501040011511058C
:107E0000A1F7CDB7DEB7E8E00C94483FA0E0B0E0C2
:107E1000ECE0FFE30C942C3FEC017B018A0169014B
:107E200009C0CE012196F70161917F01F601099504
:107E30000150104001151105A1F7CDB7DEB7E8E0FC
:107E40000C94483F2F923F924F925F926F927F9295
:107E50008F929F92AF92BF92CF92DF92EF92FF925A
:107E60000F931F93CF93DF93CDB7DEB7CA1BDB0B06
:107E70000FB6F894DEBF0FBECDBF09942A883988AB
:107E800048885F846E847D848C849B84AA84B984B2
:107E9000C884DF80EE80FD800C811B81AA81B981BE
:107EA000CE0FD11D0FB6F894DEBF0FBECDBFED01D2
:027EB000089533
:107EB200404B01E2C04B0000D0FC8C0299003941DA
:107EC200F99E860B24067FA6000000000000000039
:107ED20000000000000000000000000000000000A0
:107EE200007312000080B436412008048120CFF7CD
:047EF200FEFFFF0090
:040000030000700089
:00000001FF
